:020000040800F2
:10000000F00600208901000873040008530300086B
:100010007104000843020008830C0008000000007F
:10002000000000000000000000000000B90500080A
:10003000450200080000000085050008650600086C
:10004000A3010008A3010008A3010008A301000800
:10005000A3010008A3010008A3010008A3010008F0
:10006000A3010008A3010008A3010008A3010008E0
:10007000A3010008A3010008A3010008A3010008D0
:10008000A3010008A3010008A3010008A3010008C0
:10009000A3010008A3010008A3010008A3010008B0
:1000A000A3010008A3010008A3010008A3010008A0
:1000B000B9060008A3010008A3010008A301000875
:1000C000A3010008A3010008A3010008A301000880
:1000D000A3010008A3010008A3010008A301000870
:1000E000A3010008A3010008A301000800F002F822
:1000F00000F03AF80AA090E8000C82448344AAF188
:100100000107DA4501D100F02FF8AFF2090EBAE885
:100110000F0013F0010F18BFFB1A43F0010318473B
:100120006014000080140000103A24BF78C878C121
:10013000FAD8520724BF30C830C144BF04680C60ED
:10014000704700000023002400250026103A28BF35
:1001500078C1FBD8520728BF30C148BF0B60704739
:100160001FB51FBD10B510BD00F031F81146FFF7E7
:10017000F7FF00F093FF00F04FF803B4FFF7F2FF32
:1001800003BC00F057F800000948804709480047C1
:10019000FEE7FEE7FEE7FEE7FEE7FEE7FEE7FEE737
:1001A000FEE7FEE704480549054A064B7047000094
:1001B00069060008ED000008F0000020F0060020AD
:1001C000F0020020F002002070477047704775462B
:1001D00000F02CF8AE4605006946534620F00700B3
:1001E000854618B020B5FFF7DDFFBDE820404FF091
:1001F00000064FF000074FF000084FF0000B21F011
:100200000701AC46ACE8C009ACE8C009ACE8C009DD
:10021000ACE8C0098D46704710B50446AFF30080C6
:100220002046BDE81040FFF7A8BF00000048704717
:100230009000002001491820ABBEFEE72600020016
:100240007047FEE7704700B502464FF47A7302E04C
:10025000184600F003F8521EFAD200BD00EBC000B1
:10026000C1004FF0E0204161002181610521016161
:100270000169C903FCD5042101617047F0B5CC7850
:10028000002204F00F03E40601D58C7823430C7898
:100290004FF00F0C14F0FF0F4FF0010E1BD005684C
:1002A0000E880EFA02F42640A64210D196000CFAEF
:1002B00006F725EA070703FA06F5CE783D43282E10
:1002C00002D0482E02D002E0446100E00461521CDA
:1002D000082AE5D305600A88FF2A1CD94468002251
:1002E00002F108060EFA06F50E882E40AE420ED137
:1002F00096000CFA06F7BC4303FA06F7CE783C43A7
:10030000282E00D14561CE78482E00D10561521CBF
:10031000082AE5D34460F0BD08B50121042000F0AF
:100320003FF948208DF803000420ADF800000320B9
:100330008DF8020069460248FFF7A0FF08BD0000E3
:10034000000801400246002092680A4200D00120C5
:100350007047FEE730B5012189B0C80200F020F9EE
:100360000121042000F01CF918208DF81F004FF423
:10037000E060ADF81C0003208DF81E0007A921489D
:10038000FFF77CFF0024FF201F4DADF81240ADF8B1
:100390001400ADF810408DF8184004A9284600F06C
:1003A000E5FB6020ADF800000120ADF80200ADF8DB
:1003B0000840ADF806406946284600F0F3FA694661
:1003C000284600F035FB6946284600F07BFB0121FA
:1003D000284600F0B9FA0121284600F0BFFA0821AA
:1003E000284600F01FFB0821284600F061FB082189
:1003F000284600F0A5FB0121284600F095FA09B037
:1004000030BD000000080140002C014010B500F094
:1004100005F8BDE81040FFF79DBF000008B50121B9
:10042000042000F0BDF84FF4E060ADF800001020AB
:100430008DF8030003208DF8020069460148FFF79C
:100440001DFF08BD0008014070B5084C0646154662
:1004500089B2204600F084FBB1B2204600F082FB56
:10046000A9B22046BDE8704000F07EBB002C0140E0
:10047000FEE7704730B50F23C27801780125F2B14D
:10048000144A126801F1E02102F4E062C2F5E06270
:10049000120AC2F10404D3404278A24084781C407E
:1004A0001443220181F80024007800F01F018D40E0
:1004B0004009800000F1E020C0F8005130BD01F09B
:1004C0001F0085404809800000F1E020C0F88051FD
:1004D00030BD00000CED00E002490843024908600D
:1004E000704700000000FA050CED00E030B589B05F
:1004F0000121042000F048F80121082000F050F804
:1005000018208DF81F00C020ADF81C0003208DF8C6
:100510001E0007A91948FFF7B1FE194D284600F043
:100520003CFA0024ADF8164044F61F60ADF8140004
:10053000ADF812404720ADF810008DF8184004A91E
:10054000284600F013FB684600F000FB6020ADF881
:1005500000000120ADF80200ADF80840ADF80640FB
:100560006946284600F01EFA6946284600F060FAFF
:100570000121284600F0E8F909B030BD000C014027
:100580000008004070470000044A0029D16901D0EA
:10059000014300E08143D161704700000010024038
:1005A000044A0029916901D0014300E0814391612F
:1005B0007047000000100240704700000CB5002298
:1005C000264800920192016841F4803101604FF4A5
:1005D000A063016801F4003101910099491C009168
:1005E000019911B900999942F3D10168890333D572
:1005F000012101911A490A6842F010020A600A6852
:1006000022F003020A600A6842F002020A604168AE
:10061000416041684160416841F4806141604168E6
:1006200021F47C114160416841F4E81141600168A6
:1006300041F08071016001688901FCD5416821F0B9
:1006400003014160416841F0020141604168C1F32A
:1006500081010229FAD10CBD01920CBD00100240AB
:1006600000200240704700000F4810B5016841F0BB
:100670000101016041680D4A1140416001680C4A66
:1006800011400160016821F480210160416821F47A
:10069000FE0141604FF41F018160FFF78FFF0549A4
:1006A0004FF00060086010BD001002400000FFF82D
:1006B000FFFFF6FE08ED00E070B501218E07304621
:1006C00000F057F9012873D1914B01250024D86817
:1006D000401CD86014286CDBDC6098681E2816D299
:1006E000DFE800F00F161C232A3239414951565ECB
:1006F000686D727A7F84898E98A0A5AAB5BDC5CD94
:10070000D5DE5878FF2801D2401C11E09D60CBE077
:10071000187808B1401E13E00220BFE09878FF2847
:1007200001D2401C13E00320B8E0587810B1401EFD
:100730005870B9E00420B1E01878FF2802D2401CBC
:100740001870B1E00520A9E0987810B1401E9870AB
:10075000AAE00620A2E05878FF28D5D39878FF2891
:10076000DFD307209AE018780028D3D198780028A2
:10077000ECD1082092E01878FF28E0D39878002880
:10078000E4D109208AE05878FF28BDD30A2085E00B
:100790001878FF28D3D358780028C8D10B207DE0E3
:1007A0005878FF28B0D398780028CFD10C2075E076
:1007B000ACE07EE018780028ACD10D206EE098788F
:1007C000FF28AED30E2069E058780028AFD1187802
:1007D000FF28B4D30F2061E0187800289AD11020A8
:1007E0005CE05878FF288FD3112057E09878FF28D5
:1007F00097D3122052E05878002898D113204DE06A
:100800001878FF289BD35878FF28A6D39878FF281C
:1008100087D348E018780028A7D19878FF2880D39C
:1008200015203BE09878002890D1162036E0987883
:10083000FF2895D3172031E01878FF289DD35878EA
:10084000FF288AD39878FF288AD3182026E0587882
:100850000028A2D11878FF288FD319201EE018781D
:100860000028A9D15878FF288FD31A2016E058788D
:10087000002892D19878FF28A3D31B200EE0987807
:10088000002892D11878FF2884D31C2006E098789D
:1008900000288AD11878FF289BD31D20986003E098
:1008A0001878002888D19C609A7859781878FFF7D2
:1008B000CBFD184818490068012806D1086847F29E
:1008C0005152401C0860904200DD0C6013490868DA
:1008D000401C0860642800D10C6004211048FFF718
:1008E00031FD0B490F4A091F10B10C70146007E06D
:1008F0000878401CC0B208701E2801D90C70156021
:100900003046BDE87040012100F01BB870BD00000A
:1009100004000020200000201C00002018000020FF
:1009200000080140140000200029018802D041F095
:10093000800101E021F0800101807047C9430182FC
:100940007047C943018270470029018802D041F0F5
:10095000010101E021F0010101807047002930F818
:10096000441F02D041F4004101E0C1F30E010180B7
:10097000704702460020138A92890B4202EA010264
:1009800002D0002A00D001207047002A828901D0BD
:100990000A4300E08A4382817047018921F0070100
:1009A0000181704730B5028C22F001020284028C72
:1009B0008388048B22F0020224F073050C882C43F8
:1009C0000D8915434A882A43114DA8420BD0114D79
:1009D000A84208D0104DA84205D0104DA84202D020
:1009E0000F4DA8420DD122F008054A8923F4407327
:1009F0002A4322F004058A882A438D891D43CB8926
:100A00002B4383800483C9888186028430BD000023
:100A1000002C0140003401400040014000440140EE
:100A200000480140028B22F008020A43028370470B
:100A300070B5028C22F010020284028C8388048B31
:100A40000D8824F4E6464FF6FF7404EA0525354385
:100A50000E8922F0200204EA061616434A8804EAA8
:100A600002123243104EB04202D0104EB04215D1A5
:100A700022F080064A8923F4406304EA02123243DA
:100A800022F040068A8804EA021232438E8904EA80
:100A900086061E43CB8904EA8303334383800583A0
:100AA000C9880187028470BD002C014000340140D8
:100AB000028B4FF6FF7322F4006203EA0121114317
:100AC0000183704770B5028C22F480720284028C1C
:100AD0008388848B0D8824F0730425430E894FF698
:100AE000FF7422F4007204EA062616434A8804EAD8
:100AF00002223243104EB04202D0104EB04215D105
:100B000022F400664A8923F4405304EA0222324365
:100B100022F480668A8804EA022232438E8904EA3B
:100B200006161E43CB8904EA03133343838085836F
:100B3000C9888187028470BD002C014000340140C7
:100B4000828B22F008020A438283704700210180D1
:100B500041808180C180018141818181C181704753
:100B600081867047018770478187704730B502885A
:100B70001B4C1C4DA0420DD0A8420BD0B0F1804FB1
:100B800008D0194B984205D0184B984202D0184B08
:100B9000984203D122F070034A881A43154B9842B9
:100BA00006D0154B984203D022F44073CA881A43EA
:100BB00002808A8882850A880285A0420AD0A842DB
:100BC00008D00E4A904205D00D4A904202D00D4AFC
:100BD000904201D1097A01860121818230BD000055
:100BE000002C014000340140000400400008004097
:100BF000000C004000100040001400400040014084
:100C000000440140004801401FB501210846FFF79C
:100C1000BBFC4FF080442046FFF7BFFE0021ADF83B
:100C200006100920ADF80210ADF8040041F61F408F
:100C3000ADF800008DF8081069462046FFF796FFD2
:100C400001212046FFF77AFE012211462046FFF7D8
:100C50009CFE4FF4A060FFF73FFC1C208DF80C00B9
:100C600001208DF80F0003208DF80D0002208DF873
:100C70000E0003A8FFF7FEFB01212046FFF764FEEC
:100C80001FBDFEE770B500F051FA4FF47A764FF4CD
:100C9000E16440F2DC55334601222146284600F04B
:100CA0009DF9334600222946204600F097F9334645
:100CB00001222146284600F091F9334600222946B8
:100CC000204600F08BF900F09AFABDE8704000F081
:100CD0008FBA000070B5294D044601212846FFF760
:100CE00033FE0A2C11D2DFE804F0050A191F252A69
:100CF00030363C4200F09BF90022114612E000F031
:100D000026F9002213E000F085FA1420FFF79BFA81
:100D10002846BDE870400021FFF716BE00F0EAFA51
:100D20000022E121E120EEE700F0D2F8E122E1210A
:100D30000020E8E700F024F8C122B6211BE000F013
:100D4000E2F8FF22BE21E620DDE700F0FEF9FA22FC
:100D5000CE218720D7E7FFF795FFC922FC21BD20D0
:100D6000D1E700F036FB802211461046CBE700F0B9
:100D700065F90022A521FF20C5E70000000800401A
:100D800070B500F0D3F94FF47A63012240F63401D4
:100D900040F2DC5000F022F940F29C444FF44875D8
:100DA0004FF47A7300222146284600F055F94FF49B
:100DB000FA7301222946204600F04EF900F01FFA8E
:100DC00000F00EFABDE8704000F018B870B50A4C9B
:100DD00040F2DC512046FFF7C3FE4FF4FA75284677
:100DE000FFF731FA40F244512046FFF7BBFE284698
:100DF000BDE87040FFF727BA000800404FF4487084
:100E00000346002240F2445100F026B92DE9F0419A
:100E10000024804627464BE0A0F14101192946D81D
:100E20002949002501EB8000A0F58050D0F8FC6E28
:100E300032E0072294FBF2F194FBF2F094FBF2FC17
:100E400002FB114102FB1040204B02FB1C4201EB54
:100E5000410102EB420200EB400003EB810103EB96
:100E6000820253F820004968926800F0D0F9705D62
:100E70002E2802D02D2802D004E0142000E02820E3
:100E8000FFF7E1F900221146104600F0C0F91420E6
:100E9000FFF7D9F9641C6D1C705D0028C9D10022D0
:100EA0001146104600F0B3F93C20FFF7CCF97F1C47
:100EB00018F807000028AFD1BDE8F0410022114624
:100EC000104600F0A4B90000280000209414000887
:100ED00010B500F02BF940F634044FF47A63012288
:100EE000214640F2DC5000F079F84FF448730122BB
:100EF0004FF41661204600F071F800F071F9BDE87A
:100F00001040FFF77BBF70B541F28833012240F2F9
:100F1000244140F2445000F09FF840F20E6440F249
:100F2000DC554FF47A6301222146284600F056F83A
:100F30004FF4167300222946204600F04FF800F0C7
:100F40005EF900F04DF9BDE87040FFF757BF70B58E
:100F500000F0ECF84FF47A7640F634043346012280
:100F6000214640F2DC5000F039F84FF4AF653346CB
:100F700000222946204600F031F8334601224FF482
:100F80001661284600F02AF8BDE8704000F030B93C
:100F900070B500F0CBF84FF4FA64234640F2DC550C
:100FA00001221946284600F019F8234640F2A466AB
:100FB00000223146184600F011F823460122194656
:100FC000304600F00BF8234600222946184600F070
:100FD00005F8BDE87040FFF711BF00002DE9F041B2
:100FE0000E4E1F460D46012A044608D013E0A1B25A
:100FF0003046FFF7B5FD3846FFF730F9641DAC42C7
:10100000F5DBBDE8F081A1B23046FFF7A9FD384617
:10101000FFF724F9641FAC42F5DCF2E7000800405A
:1010200010B5FFF779F9BDE81040FFF7EDBD10B539
:1010300000F084F8BDE8104000F0DAB810B500F018
:1010400075F84FF47A70FFF7FEF800F0D8F8BDE8B5
:10105000104000F0CDB800002DE9F0410E4E1F46C3
:101060000D46012A044608D013E0A1B23046FFF72E
:1010700079FD3846FFF7F2F8A41EAC42F5DCBDE876
:10108000F081A1B23046FFF76DFD3846FFF7E6F874
:10109000A41CAC42F5DBF2E7000800400024FFF797
:1010A000B5F91DA0FFF7B2FEFFF7BAFFFFF71EFA72
:1010B000FFF78CFE00211B48FFF746FC00271A4D66
:1010C0004FF00A084FF001094FF47A7A0526286894
:1010D000012817D094FBF6F006FB104000EB40010E
:1010E000C1EBC0110AEBC100C5E903902969A868EA
:1010F0008842ECD194FBF6F006FB104000F0C4F8F7
:101100006C68E4E7EF606C6894FBF8F108FB114051
:10111000FFF7E0FDEAE7000048454C4C4F574F52BF
:101120004C44000000080040140000204FF44871B7
:101130000B46012240F24450FFF78EBF10B5FFF777
:10114000F5FFBDE8104000F05AB82DE9F0414FF42A
:10115000167540F24C4640F244542B46012231466B
:101160002046FFF779FF6F002B46002221463846C4
:10117000FFF772FF2B46012231462046FFF76CFF36
:101180002B46002221463846FFF766FF2B460122F8
:1011900031462046FFF760FF2B46002221463846A5
:1011A000FFF75AFF2B46012231462046FFF754FF36
:1011B0002B46002221463846FFF74EFF2B460122E0
:1011C00031462046FFF748FF2B460022214638468D
:1011D000FFF742FFFFF7B2FFBDE8F04100F008B8AB
:1011E00040F2DC510B4600224FF41660FFF7F6BECA
:1011F00010B5FFF7F5FFBDE81040FFF7FFBD40F267
:10120000DC500346012240F6C411FFF7E7BEFFF7AA
:101210001BB9000030B4044B0024187059709A7048
:101220009C6030BCFFF710B90400002070B54FF48B
:1012300048764FF47A7440F23C55334601222146F9
:101240002846FFF709FF3346002229462046FFF7CC
:1012500003FF3346012221462846FFF7FDFE3346B1
:101260002046BDE8704000224FF4AF61FFF7F4BEA6
:1012700010B5FFF75BFF4FF41670FEF7E4FFBDE813
:101280001040FFF7BBBD000070B5194D04460121A9
:101290002846FFF759FB052C20D2DFE804F00309AC
:1012A00011171D00FFF7C2FFE12200217F2004E09B
:1012B000FFF76EFE7F22A5213520FFF7ABFF0DE083
:1012C00000F03EF8E1220021EB20F6E7FFF7D0FF27
:1012D0007F224E212B20F0E700F0BFF81420FEF70C
:1012E000B2FF2846BDE870400021FFF72DBB00008B
:1012F000000800402DE9F0414FF4487840F24C449A
:1013000040F244554346012221462846FFF7A4FEF9
:101310004FF4166640F2DC57434601223146384608
:10132000FFF75CFE4346002239463046FFF756FE83
:10133000434629462046BDE8F0410022FFF78CBE17
:101340002DE9F0414FF4167540F24C4640F24454FA
:101350002B46012231462046FFF77EFE6F002B46CA
:10136000002221463846FFF777FE2B460122314600
:101370002046FFF771FE2B46002221463846FFF734
:101380006BFE2B46012231462046FFF765FE2B46B9
:10139000002221463846FFF75FFE2B4601223146E8
:1013A0002046FFF759FE2B46002221463846FFF71C
:1013B00053FE2B46012231462046FFF74DFE2B46B9
:1013C000002221463846FFF747FEBDE8F041FFF70F
:1013D00015BD2DE9F041FFF7A9FE4FF461784FF4F8
:1013E000E16440F2DC554346012221462846FFF7DE
:1013F000F5FD40F24C464FF4487743460022314613
:101400003846FFF729FE4346002229462046FFF7CB
:10141000E5FD4346012239463046FFF71DFE4346AF
:10142000012221462846FFF7D9FD434600223146D6
:101430003846FFF711FE4346002229462046FFF7B3
:10144000CDFD4346012239463046FFF705FEFFF742
:10145000D6FEBDE8F041FFF7CBBE10B50022114625
:10146000FF20FFF7D7FE4FF4FA742046FEF7EBFE9D
:101470000022FF211046FFF7CDFE2046FEF7E3FED7
:101480000021FF220846FFF7C5FE2046BDE81040B8
:10149000FEF7D9BEFF0000000000000000000000C1
:1014A000FF000000A500000000000000FF00000099
:1014B000FF0000000000000000000000FF0000002E
:1014C0000000000000000000FF000000FF0000001E
:1014D0000000000000000000FF000000800000008D
:1014E00000000000800000002E2D2D2D00000000C7
:1014F0002D2D2D002D2E2D2D000000002E2D2D0028
:101500002D2D00002D2D2E2D000000002D2E2D0044
:101510002D2E2E2D000000002E2E2E2D000000005E
:101520002E2E2D002E2D00002D0000002E2D2D2EF4
:10153000000000002D2D2E002D2E2D2E000000006D
:101540002E2E2D2E000000002E2D2E002D2E000000
:101550002D2D2E2E000000002E2D2E2E000000001E
:101560002D2E2E002D2E2E2E000000002E2E2E2E83
:10157000000000002E2E2E002E2E00002E00000057
:10158000A0150008000000209000000028010008BD
:10159000301600089000002060060000440100089A
:1015A000000000000000000001000000000000003A
:1015B000000000000000000000000000000000002B
:1015C0000000000000000000241500086415000859
:1015D00038150008601500087C1500084015000843
:1015E000341500086C15000878150008E814000888
:1015F0000C15000858150008001500084C150008C7
:10160000F01400082C1500080415000848150008FF
:101610007415000828150008201500081815000882
:10162000FC14000810150008F414000850150008F8
:04000005080000ED02
:00000001FF
